:100000000C9438000C9442000C9442000C94420072
:100010000C9442000C9442000C9442000C94420058
:100020000C9442000C9442000C9442000C94420048
:100030000C9442000C9442000C9442000C94420038
:100040000C9442000C9442000C9442000C94420028
:100050000C9442000C9442000C9442000C94420018
:100060000C9442000C9442000C9442000C94420008
:1000700011241FBECFEFD4E0DEBFCDBF0E944400ED
:100080000C945C000C9400008FE190E00E944C0006
:1000900082E60E945300FCCF90BD89B988E18AB9FD
:1000A0008EE880BD08955D9BFECF8CB908958BB11D
:0C00B0008770E9F38CB10895F894FFCF3D
:00000001FF
